:1000000012308A00932A0000FF00030E8301A10032
:100010000A08A0008A010408A2007708A300780853
:10002000A4007908A5007A08A60003170D08031399
:10003000A70003170F080313A80003170C080313E6
:10004000A90003170E080313AA00831383128C3030
:100050008400001C2D280C184E2822088400230838
:10006000F7002408F8002508F9002608FA002708F8
:1000700003178D000313280803178F0003132908A3
:1000800003178C0003132A0803178E00031320089C
:100090008A00210E8300FF0E7F0E09008A110A12CA
:1000A0005128BE0A0319BF0A8E01FF308F008E004F
:1000B0000C108A110A122D28C434733A6137E332C6
:1000C0003A002010D434ED32A027753A20100001F8
:1000D000CF3A74104F3320296137E73200002010E7
:1000E00020102010A0316D10201000010C00F637F8
:1000F0006C3A3D1000000C00E6376510F3327410C6
:100100007338E532641000016537F432721020183C
:1001100020000C002A10E63772107538A039F03232
:10012000653200012310E6377210E4377737A039C3
:10013000F032653220003010E6377210733A6139C0
:100140007400D02B4D103D10253320000C00F332ED
:10015000741074346510F434ED32201000016937E6
:10016000F03A74102A10E63772107538200069379B
:10017000F03A74102310E6377210E4377737000135
:100180006937F03A74103010E6377210733A6139FB
:1001900074000C00F3327410743465107338E53257
:1001A000641020000C002A10E63772107538A03950
:1001B000F032653200012310E6377210E4377737EA
:1001C000A039F032653220003010E6377210733AF1
:1001D00061397400D02B4D103D10253320000C00E8
:1001E0000C006937E3377239E53174100001693763
:1001F000F03A741000000C006937E3377239E531CA
:10020000741000000C00E3377537F43272103D10A3
:1002100025367500D024C3183623B81BB720A02A72
:1002200041295410653CE136703665004910E837C5
:10023000F032203AE8347310E2376139641020312B
:1002400065376533693AA03CEF3A00006537F43210
:1002500072106110EE3A6D316539203A6F1000016D
:100260006334EF37F332A030203375376310000169
:100270000C00A8182910ED37F437F239200028199E
:100280002910F332EE396F397300A8192910653738
:10029000E337E4327200281A2910EC32E4392010D6
:1002A0002014B514A03A613974000C00A818291064
:1002B000C421A0366F3A6F39200028192910533A0B
:1002C0006538F032721000010C0020226F10F937EF
:1002D0007510F7306E3A203AE93665103F100A1073
:1002E0000001B114A03CE5390001B21420376F00C1
:1002F0000C000C006937E3377239E53174100001E6
:100300006937F03A741000010C00B11420336939D8
:10031000733A20326939E531F4346F370001B21491
:10032000A039E5316F376410E434F232633AE937CB
:100330006E000C00A8182910A03A6C3AF230A039CF
:100340006F37E9316B10000128192936ED19350096
:10035000A8192910F03774000C006937E337723997
:10036000E531741000010C000C000C000C00693722
:10037000E3377239E531741000016937F03A7410CF
:10038000000063308400831300080319D52901306D
:10039000F800F701F70BCA29F80BC9294A30F70012
:1003A000F70BD029D329800BC72908006818DA2950
:1003B0000612DB290616831606128312E818E229B4
:1003C0008612E32986168316861283126819EA2993
:1003D0000613EB290617831606138312E819F22970
:1003E0008613F32986178316861300008312861559
:1003F00083168611FB2983128611831686118312B8
:100400000800E9018316061600308312061A01302F
:10041000E9048316861600308312861A0130F7002D
:100420000310F70D7708E9048316061700308312CE
:10043000061B0130F700F70DF70DFC30F7057708C4
:10044000E9048316861700308312861B0130F700FB
:10045000F70DF70DF70DF830F7057708E90469088F
:10046000F800080083168611861006118312861084
:10047000831686100616861606178617831206152B
:10048000831606110000831286158316861100005C
:10049000831201227808E800861183168611000075
:1004A00083128615831686110000831201227808B4
:1004B000E70086118316861106128612061386132C
:1004C0008312680EF700F030F70577086704F8002C
:1004D0007808E700E71F6E2A83163A2AE508031D0D
:1004E000732A8610742A86148316861000008312DD
:1004F00006118316061100008312861183168611D9
:100500008312660EE7000F30E7056708E800D62182
:1005100066080F39E700E800D62108002830DF0020
:100520000C30E0000130E1000630E2008611831655
:100530008611831286108316861083120611831685
:1005400006110612861206138613861186100611EE
:100550000F308312E300C1210130DE005E08033C4E
:10056000031CBA2A0330E800D6210530E300C1217C
:10057000DE0AAE2A0230E800D6210530E300C121B0
:10058000DE015E08033C031CD12A5F305E07840055
:1005900083130008E300E5016308E6003222DE0A67
:1005A000C12A0800620BD52AD82A4030E300D92A94
:1005B000E30101306102E30763088038E400E501EC
:1005C0006408E600322208006008073A0319F22A9C
:1005D0000B3A0319F72A063A0319FF2A023A0319BC
:1005E000052B0A2B0130E100E200D2220F2BE5019E
:1005F0000130E60032220230E300C1210F2B01302E
:10060000E1000230E200D2220F2BE5011030E600BB
:1006100032220F2B0130E5006008E600322208008C
:100620000B08C7008B13831603178C170C140000DC
:10063000000083120313C71B8B1703170C087F39A5
:100640000319642B0313C70003170D080313C80015
:1006500003170F080313C9004708E000E422480805
:1006600003178D000313490803178F0003130B08AA
:10067000CA008B13831603178C170C14000000009C
:1006800083120313CA1B8B1703170C0D0E0D7F3932
:100690000319642B0313C70003170D080313C800C5
:1006A00003170F080313C9004708E000E4224808B5
:1006B00003178D000313490803178F008D0A0319D0
:1006C0008F0A0313102B031703130800B201B2089B
:1006D000031D462CC1014108033C031C452CC108E5
:1006E000031DA42B83168810831288148316881682
:1006F0008312881E832B3130B0000130B2003108E4
:10070000E300C1219C2B831608178312081F902B2E
:100710003230B0000130B2003108E300C1219C2B1F
:10072000831688178312881F9C2B3330B00001304A
:10073000B2003108E300C1213108E300C121831672
:10074000881083128810432C410BD82B8316081174
:1007500083120815831688168312881EB72B34302F
:10076000B0000130B2003108E300C121D02B831664
:1007700008178312081FC42B3530B0000130B200B7
:100780003108E300C121D02B831688178312881FFC
:10079000D02B3630B0000130B2003108E300C12167
:1007A0003108E300C1218316081183120811432C7C
:1007B0004108023C031D0E2C8316881183128815F4
:1007C000831688168312881EED2B3730B000013057
:1007D000B2003108E300C121062C831608178312EA
:1007E000081FFA2B3830B0000130B2003108E300A6
:1007F000C121062C831688178312881F062C3930D6
:10080000B0000130B2003108E300C1213108E3003B
:10081000C1218316881183128811432C4108033C9F
:10082000031D432C8316081283120816831688169C
:100830008312881E232C2A30B0000130B200310808
:10084000E300C1213C2C831608178312081F302CAB
:100850003030B0000130B2003108E300C1213C2C3F
:10086000831688178312881F3C2C2330B000013078
:10087000B2003108E300C1213108E300C121831631
:10088000081283120812C10A6B2B672B08000B0891
:10089000C2008B13831603178C170C140000000082
:1008A00083120313C21B8B1703187E2C03170C082B
:1008B0007F390313C20003170D080313C300031786
:1008C0000F080313C4004208E000E42243080317A2
:1008D0008D000313440803178F0003130B08C50092
:1008E0008B13831603178C170C140000000083125F
:1008F0000313C51B8B17C10B7E2C9D2C03170C0DEE
:100900000E0D7F390313C20003170D080313C30034
:1009100003170F080313C4004208E000E422430851
:1009200003178D000313440803178F008D0A031962
:100930008F0A03100313C10B472C0800600803192A
:100940000E2DE800640803190E2DE8070318AF2CDC
:100950007F30E802031C0E2D03190E2DB32C8130BD
:10096000E80703180E2D6808F700F801F901FA01ED
:100970006108EC00EC176208EB006308EA0018302D
:10098000E800E9016A1CDC2C6708FA07031CCE2C7E
:10099000F90A031DCE2CF80A0319E9176608F907AE
:1009A000031CD52CF80A0319E9176508E200E217C1
:1009B0006208F8070318E917E90DF80CF90CFA0CAE
:1009C000EC0CEB0CEA0C0310E80BC12C0130F70720
:1009D00003180E2DF81BF32CEC0DFA0DF90DF80D84
:1009E000F70303190E2DEC1F042DFA0A031D042D25
:1009F000F90A031D042DF80A031D042DF80CF90C47
:100A0000FA0CF70A03190E2D6108E9006508E906DA
:100A1000E91F0C2DF817122DF813122DF701F8010C
:100A2000F901FA0108008318182D5C308400831343
:100A3000F701F801F901FA01DC01DD01DE01DF0156
:100A40005B085A04590458040319562D2030E0005D
:100A50000310D40DD50DD60DD70DDC0DDD0DDE0D3B
:100A6000DF0D5B085F02031D3F2D5A085E02031D68
:100A70003F2D59085D02031D3F2D58085C02031CE1
:100A8000502D5808DC025908031C590FDD025A0882
:100A9000031C5A0FDE025B08031C5B0FDF0203140A
:100AA000F70DF80DF90DFA0DE00B282D5C0880000C
:100AB000840A5D088000840A5E088000840A5F085A
:100AC000800008000408CC004B08CE000319812DDB
:100AD0004A08E3004908E2004808E1004708E0004E
:100AE000E701E6012030E5008230E4009E247A0828
:100AF000CA007908C9007808C8007708C700CE0B7B
:100B0000682D4A08D7004908D6004808D50047088C
:100B1000D4005408B63CD400FA015508D800D517C3
:100B20000310D50CD60CD70CFA0CF90CF80CF70CFA
:100B3000D40B902DD81FA72DF709F809F909FA0948
:100B4000F70A0319F80A0319F90A0319FA0A7A08C5
:100B5000CA007908C9007808C8007708C700CA1F0A
:100B6000BE2DCC03CC16C709C809C909CA09C70AD2
:100B70000319C80A0319C90A0319CA0A3B30D3006A
:100B80009A30D200CA30D100D0010A30CE004B08D2
:100B90000319CC0A83144730840083134A08D70012
:100BA0004908D6004808D5004708D4005308DB00A0
:100BB0005208DA005108D9005008D80013257808E7
:100BC000F708031DF62D4B0A4E020319F62D4C08AB
:100BD0000319F82D0F394E020319F02D0318282E92
:100BE000CC1B282E4C1BF82D2030242E2030CC0579
:100BF000CC1E062ECC124B08031DCC037708CC006C
:100C00002D30E000E4224C08F700CC014B084E02E6
:100C1000031D142E7708CC002E30E000E4224C088F
:100C2000F7002030CC0500303030CC1E242ECC1202
:100C30004B08031DCC037708CC002D30E000E422E4
:100C40004C08F700CC013030F7077708E000E422C9
:100C500083105308D7005208D6005108D500500819
:100C6000D400DB01DA01D9010A30D80013257A0853
:100C7000D3007908D2007808D1007708D000CE0BD5
:100C8000CA2D080080308318C606CB01CC0142086B
:100C9000CA004608CA0641080319322FC900F700E6
:100CA000450803193B2FC9020319D72E031C952EA3
:100CB0004608CF00CF174708CE004808CD00CC012A
:100CC0000310CF0CCE0CCD0CCC0CC90B5F2ECA1F61
:100CD0006C2E4B144F2F4B1049104B164430840090
:100CE0008313642F4B12CA1B7F2E491C8A2ECF0CF4
:100CF000CE0CCD0CCC0CF70A03194A2F8A2ECF1B31
:100D00008D2E0310CC0DCD0DCE0DCF0DF703031995
:100D10004A2F7F2E4B17F72E4B134208CA00CA1FCB
:100D2000932ECF17432FCF13432F4508C900F70049
:100D30004108C9024208CF00CF174308CE0044083B
:100D4000CD00CC010310CF0CCE0CCD0CCC0CC90BBC
:100D5000A12ECA1FAE2ECB144F2FCB104910CB168D
:100D6000483084008313642FCB12CA1BC12E491C48
:100D7000CC2ECF0CCE0CCD0CCC0CF70A03194A2F7D
:100D8000CC2ECF1BCF2E0310CC0DCD0DCE0DCF0D05
:100D9000F70303194A2FC12ECB17F72ECB134608A2
:100DA000CA00CA1FD52ECF17432FCF13432F460893
:100DB000CF00CF174708CE004808CD00CA1FE42E49
:100DC000CF134B154F2F4B11CC01491044308400E9
:100DD0008313642FCA1B0D2F4208CA00491CF72E2B
:100DE000CF0CCE0CCD0CCC0CF70A03194A2FCC1F1C
:100DF000082FCD0A031D082FCE0A031D082FCF0A86
:100E0000031D082FCF0CCE0CCD0CF70A03194A2F67
:100E10004B1B8C2ECB1BCE2E2C2F8030CF06CF1F02
:100E2000152F4F2F4608CA00222F4208CA00CF08AC
:100E3000031D222FCE08031D222FCD08031D222FB4
:100E4000F701432FCF1B2C2F0310CC0DCD0DCE0D52
:100E5000CF0DF70B222F4A2FCA1F302FCF17432F4A
:100E6000CF13432F4508F7004608CF004708CE00B0
:100E70004808CD00432F4108F7004208CF0043083F
:100E8000CE004408CD004F08F8004E08F9004D0888
:100E9000FA00822FF701F801F901FA01822FCC0143
:100EA000CD09CE09CF09CC09CC0A031D5D2FCD0A8F
:100EB000031D5D2FCE0A0319CF0A4B186B2ECB18DA
:100EC000AD2E4B19E32E122F0008CD07031C6E2FF9
:100ED000CE0A031D6E2FCF0A03194914840300089C
:100EE000CE07031C762FCF0A031949148403000888
:100EF000801F803ACF07031849144B1A722ECB1A61
:100F0000B42EEA2E08004208C9004608C906C91FC7
:100F10008E2F03110310C21B0314C12F4208C900F6
:100F20004508CA004108CA0203199C2FC91FC12FD6
:100F30000308013A8300C12F4608CA004208CA02CA
:100F40000319A82FC91FC12F0308013A8300C12F1D
:100F50004708CA004308CA020319B42FC91FC12F8A
:100F60000308013A8300C12F4808CA004408CA0296
:100F70000319C02FC91FC12F0308013A8300C12FD5
:100F8000031008008E30F7006108F8006008F900CF
:100F9000FA01F808031DD62F7908F800F901083086
:100FA000F702F808031DD62FF701DE2F0310F81BF8
:100FB000DD2FF90DF80DF703D62FF81308008E304A
:100FC000F7005E08F7025F08F9006008F800F917FB
:100FD000F7080319F62F0310F908031DF22FF8087C
:100FE0000319F62FF90CF80CF70BEB2FDF1FFD2F71
:0C0FF000F809F909F80A0319F90A0800C9
:1010000000308316850001308312E100E2008A116E
:10101000D2228A15A63003178D0000308F008A1166
:10102000031310238A15A73003178D0000308F009B
:101030008A11031310238A150130E1000230E20007
:101040008A11D2228A15AF3003178D0000308F002D
:101050008A11031310238A151530E1000130E200D4
:101060008A11D2228A15B73003178D0000308F0005
:101070008A11031310238A151530E1000230E200B3
:101080008A11D2228A15C03003178D0000308F00DC
:101090008A11031310238A15851005118316081071
:1010A00083120810B308031DD5298A1166238A15F7
:1010B00030082A3C031D6C2885160230F700F70B18
:1010C0005F286228000085120230F700F70B6628BF
:1010D00069280000B50AD4293008233C031D86285E
:1010E00083160910831209140230F700F70B7628D3
:1010F0007928000083160910831209100230F700C6
:10110000F70B802883280000B503D4293008303C31
:10111000031DAC29C93003178D0000308F008A11E0
:10112000031310238A150130E100E2008A11D22254
:101130008A15CA3003178D0000308F008A110313FF
:1011400010238A150230C100FA30E3008A11C12150
:101150008A15C10BA4280130B800B80803199929D1
:10116000D23003178D0000308F008A110313102333
:101170008A150130E100E2008A11D2228A15D330AB
:1011800003178D0000308F008A11031310238A1576
:101190000130E1000230E2008A11D2228A15DB30F0
:1011A00003178D0000308F008A11031310238A1556
:1011B0001530E1000130E2008A11D2228A15E430B4
:1011C00003178D0000308F008A11031310238A1536
:1011D0001530E1000230E2008A11D2228A15EA308D
:1011E00003178D0000308F00031006300313C10079
:1011F0008A1147248A15893084002E08CA002D08D8
:10120000C9002C08C8002B08C7000230CB008A1187
:1012100062258A152030E0008A11E4228A154010E8
:1012200040088316870083120710C01140088316F8
:1012300087008312871140124008831687008312AB
:101240000712C012400883168700831287128A1182
:1012500066238A1530082A3C031D612983102E0855
:10126000C4002D08C3002C08C2002B08C100C8010F
:10127000C701C6017F30C5008A1142268A157A0847
:10128000AE007908AD007808AC007708AB00C40167
:10129000C3017A30C2008830C1002E08C8002D0872
:1012A000C7002C08C6002B08C5008A1183278A15A1
:1012B000031C6029AE01AD017A30AC008830AB0070
:1012C00098293008233C031D942983142E08C40058
:1012D0002D08C3002C08C2002B08C100C801C7019B
:1012E000C6017F30C5008A1142268A157A08AE00F1
:1012F0007908AD007808AC007708AB002E08C40070
:101300002D08C3002C08C2002B08C100C801C7016A
:10131000C601C5018A1183278A15031C9329AE01D2
:10132000AD01AC01AB0198293008303C0319B8017C
:10133000AD28EF3003178D0000308F008A110313A2
:1013400010238A150130E100E2008A11D2228A15A9
:101350000130B400B300D4290130E100E2008A1169
:10136000D2228A15F03003178D0000308F008A11C9
:10137000031310238A15F13003178D0000308F00FE
:101380008A11031310238A150130E1000230E200B4
:101390008A11D2228A15F73003178D0000308F0092
:1013A0008A11031310238A1552288A110A16692CF0
:1013B00083161F1383121F139F1783169F17831201
:1013C0001F1483161F109F101F159F1183124011A9
:1013D000400883168700831207110C309700C01055
:1013E000400883168700831287100C309D006430FC
:1013F000E3008A11C1218A150030F80006389200F6
:10140000FF30831692008312B4080319D62BB70855
:10141000031D392A7B3003178D0000308F008A119D
:10142000031310238A150130E100E2008A11D22251
:101430008A157C3003178D0000308F008A1103134A
:1014400010238A150130E1000230E2008A11D22215
:101450008A15843003178D0000308F008A11031322
:1014600010238A15831608178312081F392A0130A2
:10147000B800401040088316870083120714C0117B
:101480004008831687008312871140124008831694
:10149000870083120716C012400883168700831244
:1014A00087122C08F9002B08F800F90CF80CF90C3D
:1014B000F80CF90C78089500F90C790C3039F70024
:1014C0001708CF39770497002C08F9002B08F8008B
:1014D000F90CF80CF90CF80CF90C78089B00F90CD5
:1014E000790C3039F7001D08CF3977049D00323070
:1014F000E3008A11C1218A15831608128312081687
:10150000B608031DE92AB50803199F2AB5038316F7
:101510000910831209140230F700F70B8D2A902A64
:10152000000083160910831209100330C100C8306F
:10153000E3008A11C1218A15C10B972AE92A831673
:101540000610831206140230C100FA30E3008A113B
:10155000C1218A15C10BA52A831606108312061015
:10156000401040088316870083120710C0114008FE
:101570008316870083128711401240088316870064
:1015800083120712C0124008831687008312871245
:1015900083160810831208100430C100FA30E300EB
:1015A0008A11C1218A15C10BCE2A83160810831215
:1015B00008140430C100FA30E3008A11C1218A15F1
:1015C000C10BDB2A831608108312081095019B01BA
:1015D000B401B8080319D52B893003178D000030EA
:1015E0008F008A11031310238A150130E100E200F5
:1015F0008A11D2228A158A3003178D0000308F009D
:101600008A11031310238A150130E1000230E20031
:101610008A11D2228A15923003178D0000308F0074
:101620008A11031310238A151530E1000130E200FE
:101630008A11D2228A159B3003178D0000308F004B
:101640008A11031310238A151530E1000230E200DD
:101650008A11D2228A15A13003178D0000308F0025
:10166000031006300313C1008A1147248A158930FC
:1016700084002E08CA002D08C9002C08C8002B08B9
:10168000C7000230CB008A1162258A152030E000A5
:101690008A11E4228A1540104008831687008312BD
:1016A0000710C0114008831687008312871140126B
:1016B00040088316870083120712C0124008831661
:1016C0008700831287128A1166238A1530082A3C04
:1016D000031D9D2B83102E08C4002D08C3002C0869
:1016E000C2002B08C100C801C701C6017F30C50078
:1016F0008A1142268A157A08AE007908AD0078086A
:10170000AC007708AB00C401C3017A30C200883056
:10171000C1002E08C8002D08C7002C08C6002B08E1
:10172000C5008A1183278A15031C9C2BAE01AD01CD
:101730007A30AC008830AB00D42B3008233C031D3A
:10174000D02B83142E08C4002D08C3002C08C2001F
:101750002B08C100C801C701C6017F30C5008A112E
:1017600042268A157A08AE007908AD007808AC00E8
:101770007708AB002E08C4002D08C3002C08C20057
:101780002B08C100C801C701C601C5018A11832702
:101790008A15031CCF2BAE01AD01AC01AB01D42BDC
:1017A0003008303C0319B801E92A042A0800C108AE
:1017B00003190B2C0030C0008316870118308312E8
:1017C00087002F08E3008A11C1218A150030C0006C
:1017D000831687011130831287002F08E3008A11D6
:1017E000C1218A150030C000831687012130831281
:1017F00087002F08E3008A11C1218A150030C0003C
:10180000831687012830831287002F08E3008A118E
:10181000C1218A153B2C0030C0008316870111308E
:10182000831287002F08E3008A11C1218A15003036
:10183000C000831687011830831287002F08E30049
:101840008A11C1218A150030C00083168701283013
:10185000831287002F08E3008A11C1218A15003006
:10186000C000831687012130831287002F08E30010
:101870008A11C1218A15080000308316870083125F
:10188000C00083161F1383121F139F1783169F1701
:1018900083121F1483161F109F141F119F111030E5
:1018A000F80083121F08C73978049F006430E300F2
:1018B0008A11C1218A15C01040088316870083123F
:1018C000871440114008831687008312071583167A
:1018D0000810831208148A1166238A153008313CD7
:1018E000031D822C1F151F19732C83161E088312CB
:1018F000AF002F08013C031C7F2C0230AF00C10158
:10190000D723AF2C3008323C031D972C1F151F190D
:10191000872C83161E088312AF002F08013C031C7E
:10192000932C0230AF000130C100D723AF2C01301F
:10193000E100E2008A11D2228A15FB3003178D00E4
:1019400000308F008A11031310238A15FC3003170F
:101950008D0000308F008A11031310238A155B2C31
:101960008A110A16E92CCB010408CA004B10831B0C
:101970004B14440EF038C600C607E23EC700323EA4
:10198000C90044080F39C707C707C907E93EC8009F
:10199000C807C807430E0F39C807C907C80DC90DC6
:1019A000C909C90D43080F39C907C60D0730C5005D
:1019B0000A30C907C803031CD92CC807C703031C76
:1019C000DD2CC707C603031CE12CC607C503031C97
:1019D000E52C45308400831307304A054A138407F9
:1019E0004930040203194A170008F700031D002DAF
:1019F0004A1B002D4A1A142DCA19002D2030032D20
:101A0000CA154A123030F707C4010408C300441055
:101A1000831B44147708E0008A11E4228A154308E6
:101A20008400831344188317840A4A1FF02C08008B
:101A30000230831685009530831290008E018F014D
:101A40008E010C30E0008A11E4228A150430E10096
:101A50000130E2008A11D2228A155C3003178D0012
:101A600000308F008A11031310238A15B901BB01BE
:101A7000BA0105140230F700F70B3C2D3F2D000092
:101A800005108E018F018E0185185C2D0F08FA005C
:101A90000E08F7000F087A02031D462D7708C100D3
:101AA0007A08C2004208033C031C5C2D031D442D30
:101AB0004108E73C0318442D0F08FA000E08F70010
:101AC0000F087A02031D5C2D7708C1007A08C20056
:101AD0004208023C0318752DFF3A031D732D41087F
:101AE000DE3C0318752D0130B9008E018F018E0187
:101AF000851C912D3B08613C031C912D031D842DF9
:101B00003A08A73C031C912D0F08FA000E08F700B5
:101B10000F087A02031D842D7708BA007A08BB00EB
:101B2000782D3B08603C03189E2DFF3A031D9C2D29
:101B30003A089E3C03189E2D0230B900390BB02D97
:101B40000330E1000230E2008A11D2228A156130AE
:101B500003178D0000308F008A11031310238A159C
:101B60003908023C031DC52D0330E1000230E200BC
:101B70008A11D2228A15683003178D0000308F0039
:101B80008A11031310238A15D72E3B08E1003A0867
:101B9000E0008A11C2278A157A08C4007908C300B8
:101BA0007808C2007708C100C801C7016430C600C8
:101BB0008330C500410803199F2ECD004508031945
:101BC0009F2ECD02031CE92D7F30CD0703189F2ED9
:101BD000EF2D8130CD02031C9F2E03199F2E4D083F
:101BE000F700F801F901FA01CC014208CB00CB174C
:101BF0004308CA004408C9001930CD004808C9028A
:101C00000318122E0130CA020318122ECB02031839
:101C1000122ECC020318122ECC0ACB0ACA0A48088C
:101C2000C907442E4708CA0203182D2E0130CB02E3
:101C300003182D2ECC0203182D2ECC0ACB0A4708F0
:101C4000CA074808C907031C442ECA0A031D442EAC
:101C5000CB0A031D442ECC0A442E46088038CB0202
:101C60000318432E0130CC020318432ECC0A460839
:101C70008038CB074708CA07031C212ECB0A031D57
:101C8000212ECC0A212E7A14CD0B472E522E031072
:101C9000C90DCA0DCB0DCC0D0310FA0DF90DF80DC1
:101CA000CE0DFE2D4E1C5A2E0310F80CF90CFA0C1A
:101CB000CE0C5D2EF70303199F2ECE1B862E03102C
:101CC000C90DCA0DCB0DCC0D4808C9020318722EE0
:101CD0000130CA020318722ECB020318722ECC02F6
:101CE000031C952E4708CA0203187D2E0130CB0233
:101CF00003187D2ECC02031C952E46088038CB029B
:101D00000318862E0130CC02031C952EFA0A031DFF
:101D1000952EF90A031D952EF80A031D952EF70A34
:101D200003199F2EF80CF90CFA0C4208CD00460856
:101D3000CD06CD1F9D2EF817A32EF813A32EF70165
:101D4000F801F901FA017A08E1007908E000780861
:101D5000DF007708DE008A11DF278A157908BD00C9
:101D60007808BC000330E1000230E2008A11D22280
:101D70008A156F3003178D0000308F008A1103130E
:101D800010238A150630E1000230E2008A11D222C7
:101D90008A1501303C07C1003D08C2000318C20A81
:101DA000023084004208C4004108C300B3246430F8
:101DB000E3008A11C1218A15362D8A110A166C2D6D
:101DC000610863068039E500E11FEB2EE009E109B7
:101DD000E00A0319E10AE31FF22EE209E309E20A2D
:101DE0000319E30AF801F901F701FA016308031D79
:101DF000FC2E62080319162F1030E4000310E00DCA
:101E0000E10DF70DFA0D63087A02031D092F620830
:101E10007702031C122F6208F702031CFA036308FF
:101E2000FA020314F80DF90DE40BFE2EE51F1D2F29
:101E3000F809F909F80A0319F90A080080080319D2
:101E4000352FDF010408DE005F10831B5F140008DC
:101E5000E0008A11E4228A155E08840083135F186B
:101E60008317840A0319850A1E2F080083161F1082
:101E70009F141F119F111F1383121F179F17831683
:101E80009F1783121F14763003178D0000308F00C8
:101E90008A11031310238A150130E100E2008A1130
:101EA000D2228A15773003178D0000308F008A11F7
:101EB000031310238A151030F8001F08C73978045F
:101EC0009F000230F700F70B632F662F00001F15ED
:101ED0001F19682F83161E088312C5001E08C6002E
:101EE0004608C8004508C700CA010530C9001030BF
:101EF000CB00F701FA01C80CC70C031C852F490859
:101F0000F7070318FA0A4A08FA07FA0CF70CF90C53
:101F1000F80CCB0B7B2F7908C8007808C70048085D
:101F2000CA004708C9000330CC00FF30CB00F801DD
:101F3000F901F701FA014C08031DA12F4B08031901
:101F4000BB2F1030CD000310C90DCA0DF70DFA0DCF
:101F50004C087A02031DAE2F4B087702031CB72FE3
:101F60004B08F702031CFA034C08FA020314F80D9D
:101F7000F90DCD0BA32F7908FA007808E000790855
:101F8000E1008A11C2278A157A08C4007908C300C3
:101F90007808C2007708C1000130E1000230E20099
:101FA0008A11D2228A15893084004408CA00430865
:101FB000C9004208C8004108C7000230CB008A119E
:101FC00062258A156430E3008A11C1218A155B2FCE
:061FD0008A110A166C2DB7
:102000005430C1006530C2006D30C3007030C40070
:102010002030C5003D30C6002030C700C800303039
:10202000C900CA002E30CB003030CC002030CD00AB
:102030004330CE00CF013D30D0002030D100D2005F
:102040003030D300D4002E30D5003030D6002030D0
:10205000D7004B30D800D90183161F1383121F17E6
:102060009F1783169F1783121F1483161F109F1428
:102070001F159F151830F80083121F08C739780400
:102080009F000A128E220A160C30E0000A12E42287
:102090000A160430DE00FA30E3000A12C1210A16E3
:1020A000DE0B4B281F151F1953281E08FA00831634
:1020B0001E088312DE001E08DF00E1005E08E0005B
:1020C0000A12C2270A167A08E3007908E2007808A3
:1020D000E1007708E0003530E7005E30E6007A3056
:1020E000E5007D30E4000A129E240A167A08E10019
:1020F0007908E0007808DF007708DE000A12DF27A1
:102100000A167908DB007808DA0011305A02DC0080
:102110005B08DD000130031C0230DD02DD1FA42856
:102120005D08FA005C08DD1F9E285C08003CF70093
:10213000FA015D08031C5D0FFA027708DC007A08DB
:10214000DD002D30C800A6282030C800DD1BB128D6
:10215000DD08031DAF285C08633C0318B12831304B
:10216000C8005D08E1005C08E000E3010A30E2001D
:102170000A128A15E0260A168A117908DF00780803
:10218000DE005F08E1005E08E000E3010A30E200E3
:102190000A128A15E0260A168A117708DE007A08E4
:1021A000DF0030305E07C9005D08E1005C08E00038
:1021B000E3010A30E2000A128A15E0260A168A11A3
:1021C0007708DE007A08DF0030305E07CA00DF30B3
:1021D000CD005B08E1005A08E000E3016430E20052
:1021E0000A128A15E0260A168A117908DF00780893
:1021F000DE005F08E1005E08E000E3010A30E20073
:102200000A128A15E0260A168A117708DE007A0873
:10221000DF0030305E07D2005B08E1005A08E000C2
:10222000E3010A30E2000A128A15E0260A168A1132
:102230007908DF007808DE005F08E1005E08E00052
:10224000E3010A30E2000A128A15E0260A168A1112
:102250007708DE007A08DF0030305E07D3005B08C5
:10226000E1005A08E000E3010A30E2000A128A1590
:10227000E0260A168A117708DE007A08DF0030307F
:102280005E07D4000130E100E2000A12D2220A16F1
:102290004130840083130A128A151E270A168A11F8
:1022A0000630E1000230E2000A12D2220A16503053
:1022B000840083130A128A151E270A168A114928D8
:1022C0008A110A166C2DBF01BE01A73090008E0145
:1022D000FF308F008E00C0308B0483160C14013049
:1022E0008312E100E2000A12D2220A16023003171A
:1022F0008D0001308F000A12031310230A160330D9
:1023000003178D0001308F0003100A300313C10042
:102310000A1247240A16103084003F08C4003E0801
:10232000C3000A128A15B3240A168A116430E30026
:102330000A12C1210A1683166F2983128A110A16FE
:10234000812D0130C100C2008316091089100911C6
:1023500083124108083C0318AF290030B02901302E
:1023600042050319BD29C10A8316091183120915F3
:102370004108083C031CC201DA294108083C031C3F
:10238000C3290030C4290130C300C2080319CA2977
:102390000030CB29013043050319DA29C10A83161D
:1023A0000911831209114108113C031CDA2901307B
:1023B000C200C10083168910831289140230C30041
:1023C000FA30E3000A12C1210A16C30BE029831672
:1023D0008910831289100230C300FA30E3000A1218
:1023E000C1210A16C30BED29A9298A110A16962DB7
:1023F0000B08C1008B13831603178C170C140000F5
:10240000000083120313C11B8B1703170C087F39BD
:1024100003194E2A0313C10003170D080313C2004A
:1024200003170F080313C30041080C1E152A990057
:10243000420803178D000313430803178F0003138B
:102440000B08C4008B13831603178C170C140000A1
:10245000000083120313C41B8B1703170C0D0E0D02
:102460007F3903194E2A0313C10003170D08031304
:10247000C20003170F080313C30041080C1E3E2AB5
:102480009900420803178D000313430803178F00B8
:102490008D0A03198F0A0313F82903170313080081
:1024A0000D300C1E512A990048300C1E552A9900F7
:1024B00069300C1E592A990020300C1E5D2A9900A3
:1024C0000830C100FA30E3000A12C1210A16C10B1C
:1024D000622A0D300C1E6A2A99000A300C1E6E2AE0
:1024E00099000A3003178D0001308F000313F82183
:1024F0000830C100FA30E3000A12C1210A16C10BEC
:102500007A2A0D300C1E822A99000A300C1E862A67
:102510009900163003178D0001308F000313F82146
:102520008A110A16AB2D03081F398300AE01AD01D5
:102530007A30AC008730AB004030B0003230B100B0
:10254000B301B401B501B601B701B801FF30C00055
:10255000193083169900A6309800903083129800A5
:1025600083161F149F141F159F1107309C0083139F
:102570000A1283128E220A16003083168800870002
:102580008312C000831609108910091101308600DA
:102590000F3085000610831206140230C100FA3095
:1025A000E3000A12C1210A16C10BCF2A83160610B6
:1025B0008312061083168610831286108316061166
:1025C0008312061183168611831286118316061252
:1025D000831206128316861283128612831606133E
:1025E0008312061383168613831286134010400845
:1025F0008316870083120710C010400883168700D7
:102600008312871040114008831687008312071138
:10261000C0114008831687008312871140124008BA
:102620008316870083120712C012400883168700A2
:10263000831287128316881083128810831608115C
:1026400083120811831688118312881183160812C9
:1026500083120812831688128312881283160813B5
:1026600083120813831688138312881383160910A4
:102670008312091083168910831289108316091199
:102680008312091183160810831208140530E30021
:102690000A12C1210A168316081083120810C030CE
:1026A0008B040B168316011701308312E100E20040
:1026B0000A12D2220A16263003178D0001308F002D
:1026C0000A12031310230A160130E1000230E2005F
:1026D0000A12D2220A16303003178D0001308F0003
:1026E0000A12031310230A160430C100FA30E30063
:1026F0000A12C1210A16C10B762B0130E100E2005B
:102700000A12D2220A16383003178D0001308F00CA
:102710000A12031310230A16393003178D000130F3
:102720008F000A12031310230A160130E100023051
:10273000E2000A12D2220A163F3003178D00013040
:102740008F000A12031310230A161530E10001301E
:10275000E2000A12D2220A16453003178D0001301A
:102760008F000A12031310230A161530E1000230FD
:10277000E2000A12D2220A164B3003178D000130F4
:102780008F000A12031310230A160230C100FA3018
:10279000E3000A12C1210A16C10BC72B0A126623D5
:1027A0000A163008313C031DEC2C401040088316FB
:1027B000870083120710C011400883168700831218
:1027C0008711401240088316870083120712C01237
:1027D000400883168700831287128316891083129C
:1027E00089140130E100E2000A12D2220A165530A3
:1027F00003178D0001308F000A12031310230A16ED
:10280000563003178D0001308F000A120313102376
:102810000A160130E1000230E2000A12D2220A1642
:102820005D3003178D0001308F000A12031310234F
:102830000A166430E3000A12C1210A160A1266233E
:102840000A163008313C031DB62C0130E100E200CD
:102850000A12D2220A16643003178D0001308F004D
:102860000A12031310230A16653003178D00013076
:102870008F000A12031310230A161530E1000130ED
:10288000E2000A12D2220A16713003178D000130BD
:102890008F000A12031310230A161530E1000230CC
:1028A000E2000A12D2220A16753003178D00013099
:1028B0008F000A12031310230A160A1266230A163F
:1028C0003008313C031D712C0130B7000A128A1503
:1028D00000280A168A110A128A15D8210A168A11A6
:1028E000B52C3008323C031D8D2C0130E100E20094
:1028F0000A12D2220A16783003178D0001308F0099
:102900000A12031310230A160130B600B4000A128B
:102910008A15D8210A168A11B52C0130E100E2008F
:102920000A12D2220A16793003178D0001308F0067
:102930000A12031310230A167A3003178D00013090
:102940008F000A12031310230A160130E10002302F
:10295000E2000A12D2220A16803003178D000130DD
:102960008F000A12031310230A16EB2C3008323C96
:10297000031DEB2C83160810831208140130E100AC
:10298000E2000A12D2220A16843003178D000130A9
:102990008F000A12031310230A16853003178D00C7
:1029A00001308F000A12031310230A161530E100BC
:1029B0000130E2000A12D2220A168F3003178D006E
:1029C00001308F000A12031310230A160A128A1507
:1029D0003C2C0A168A11D92D3008323C031D6D2D6E
:1029E0000130E100E2000A12D2220A1699300317E0
:1029F0008D0001308F000A12031310230A169A303B
:102A000003178D0001308F000A12031310230A16DA
:102A10000A30E3000A12C1210A160130E100023037
:102A2000E2000A12D2220A16A43003178D000130E8
:102A30008F000A12031310230A160A30E3000A1249
:102A4000C1210A161530E1000130E2000A12D2223B
:102A50000A16A83003178D0001308F000A120313E5
:102A600010230A160A30E3000A12C1210A160A12BC
:102A700066230A163008313C031D442D0A128A15BC
:102A8000182D0A168A116C2D3008323C031D4A2D70
:102A900000286C2D3008333C031D542D0A128A1572
:102AA000362F0A168A116C2D0130E100E2000A125D
:102AB000D2220A16AC3003178D0001308F000A12A3
:102AC000031310230A16AD3003178D0001308F0059
:102AD0000A12031310230A16D92D3008333C031DA4
:102AE000822D0130E100E2000A12D2220A16B33030
:102AF00003178D0001308F000A12031310230A16EA
:102B00006329D92D3008343C031D972D0130E10095
:102B1000E2000A12D2220A16B43003178D000130E7
:102B20008F000A12031310230A16A129D92D300889
:102B3000353C031DAC2D0130E100E2000A12D22227
:102B40000A16B53003178D0001308F000A120313E7
:102B500010230A16502AD92D0130E100E2000A1292
:102B6000D2220A16B63003178D0001308F000A12E8
:102B7000031310230A16B73003178D0001308F009E
:102B80000A12031310230A160130E1000230E2009A
:102B90000A12D2220A16BD3003178D0001308F00B1
:102BA0000A12031310230A166430E3000A12C1212B
:042BB0000A1663009E
:02400E00713F00
:00000001FF
;PIC16F877A
;CRC=28DD  CREATED="27-‘»«ÿ-23 18:44"
